{
  "_format": "hh-sol-artifact-1",
  "contractName": "StealthFund",
  "sourceName": "contracts/StealthFund.sol",
  "abi": [
    {
      "inputs": [],
      "stateMutability": "nonpayable",
      "type": "constructor"
    },
    {
      "inputs": [
        {
          "internalType": "address",
          "name": "target",
          "type": "address"
        }
      ],
      "name": "AddressEmptyCode",
      "type": "error"
    },
    {
      "inputs": [
        {
          "internalType": "address",
          "name": "implementation",
          "type": "address"
        }
      ],
      "name": "ERC1967InvalidImplementation",
      "type": "error"
    },
    {
      "inputs": [],
      "name": "ERC1967NonPayable",
      "type": "error"
    },
    {
      "inputs": [],
      "name": "FailedCall",
      "type": "error"
    },
    {
      "inputs": [],
      "name": "InvalidInitialization",
      "type": "error"
    },
    {
      "inputs": [],
      "name": "NotInitializing",
      "type": "error"
    },
    {
      "inputs": [
        {
          "internalType": "address",
          "name": "owner",
          "type": "address"
        }
      ],
      "name": "OwnableInvalidOwner",
      "type": "error"
    },
    {
      "inputs": [
        {
          "internalType": "address",
          "name": "account",
          "type": "address"
        }
      ],
      "name": "OwnableUnauthorizedAccount",
      "type": "error"
    },
    {
      "inputs": [],
      "name": "ReentrancyGuardReentrantCall",
      "type": "error"
    },
    {
      "inputs": [],
      "name": "UUPSUnauthorizedCallContext",
      "type": "error"
    },
    {
      "inputs": [
        {
          "internalType": "bytes32",
          "name": "slot",
          "type": "bytes32"
        }
      ],
      "name": "UUPSUnsupportedProxiableUUID",
      "type": "error"
    },
    {
      "anonymous": false,
      "inputs": [
        {
          "indexed": true,
          "internalType": "address",
          "name": "forwarder",
          "type": "address"
        },
        {
          "indexed": true,
          "internalType": "address",
          "name": "recipient",
          "type": "address"
        },
        {
          "indexed": false,
          "internalType": "uint256",
          "name": "amount",
          "type": "uint256"
        }
      ],
      "name": "ForwarderDeployed",
      "type": "event"
    },
    {
      "anonymous": false,
      "inputs": [
        {
          "indexed": false,
          "internalType": "uint64",
          "name": "version",
          "type": "uint64"
        }
      ],
      "name": "Initialized",
      "type": "event"
    },
    {
      "anonymous": false,
      "inputs": [
        {
          "indexed": true,
          "internalType": "address",
          "name": "previousOwner",
          "type": "address"
        },
        {
          "indexed": true,
          "internalType": "address",
          "name": "newOwner",
          "type": "address"
        }
      ],
      "name": "OwnershipTransferred",
      "type": "event"
    },
    {
      "anonymous": false,
      "inputs": [
        {
          "indexed": false,
          "internalType": "string",
          "name": "key",
          "type": "string"
        },
        {
          "indexed": false,
          "internalType": "address",
          "name": "value",
          "type": "address"
        }
      ],
      "name": "ParamsUpdatedPlatform",
      "type": "event"
    },
    {
      "anonymous": false,
      "inputs": [
        {
          "indexed": false,
          "internalType": "string",
          "name": "key",
          "type": "string"
        },
        {
          "indexed": false,
          "internalType": "address",
          "name": "value",
          "type": "address"
        }
      ],
      "name": "ParamsUpdatedTreasury",
      "type": "event"
    },
    {
      "anonymous": false,
      "inputs": [
        {
          "indexed": true,
          "internalType": "address",
          "name": "from",
          "type": "address"
        },
        {
          "indexed": true,
          "internalType": "address",
          "name": "to",
          "type": "address"
        },
        {
          "indexed": false,
          "internalType": "uint256",
          "name": "amount",
          "type": "uint256"
        }
      ],
      "name": "StealthFundSent",
      "type": "event"
    },
    {
      "anonymous": false,
      "inputs": [
        {
          "indexed": true,
          "internalType": "address",
          "name": "implementation",
          "type": "address"
        }
      ],
      "name": "Upgraded",
      "type": "event"
    },
    {
      "inputs": [],
      "name": "UPGRADE_INTERFACE_VERSION",
      "outputs": [
        {
          "internalType": "string",
          "name": "",
          "type": "string"
        }
      ],
      "stateMutability": "view",
      "type": "function"
    },
    {
      "inputs": [],
      "name": "WETH",
      "outputs": [
        {
          "internalType": "address",
          "name": "",
          "type": "address"
        }
      ],
      "stateMutability": "view",
      "type": "function"
    },
    {
      "inputs": [],
      "name": "initialize",
      "outputs": [],
      "stateMutability": "nonpayable",
      "type": "function"
    },
    {
      "inputs": [],
      "name": "owner",
      "outputs": [
        {
          "internalType": "address",
          "name": "",
          "type": "address"
        }
      ],
      "stateMutability": "view",
      "type": "function"
    },
    {
      "inputs": [],
      "name": "platformWallet",
      "outputs": [
        {
          "internalType": "address",
          "name": "",
          "type": "address"
        }
      ],
      "stateMutability": "view",
      "type": "function"
    },
    {
      "inputs": [],
      "name": "proxiableUUID",
      "outputs": [
        {
          "internalType": "bytes32",
          "name": "",
          "type": "bytes32"
        }
      ],
      "stateMutability": "view",
      "type": "function"
    },
    {
      "inputs": [],
      "name": "renounceOwnership",
      "outputs": [],
      "stateMutability": "nonpayable",
      "type": "function"
    },
    {
      "inputs": [
        {
          "internalType": "address",
          "name": "_platformWallet",
          "type": "address"
        }
      ],
      "name": "setAdmin",
      "outputs": [],
      "stateMutability": "nonpayable",
      "type": "function"
    },
    {
      "inputs": [
        {
          "internalType": "uint256[]",
          "name": "_amounts",
          "type": "uint256[]"
        },
        {
          "internalType": "address[]",
          "name": "_wallets",
          "type": "address[]"
        }
      ],
      "name": "stealthMultipleFund",
      "outputs": [],
      "stateMutability": "payable",
      "type": "function"
    },
    {
      "inputs": [
        {
          "internalType": "address",
          "name": "newOwner",
          "type": "address"
        }
      ],
      "name": "transferOwnership",
      "outputs": [],
      "stateMutability": "nonpayable",
      "type": "function"
    },
    {
      "inputs": [],
      "name": "treasuryWallet",
      "outputs": [
        {
          "internalType": "address",
          "name": "",
          "type": "address"
        }
      ],
      "stateMutability": "view",
      "type": "function"
    },
    {
      "inputs": [
        {
          "internalType": "address",
          "name": "value",
          "type": "address"
        }
      ],
      "name": "updateTreasuryWallet",
      "outputs": [],
      "stateMutability": "nonpayable",
      "type": "function"
    },
    {
      "inputs": [
        {
          "internalType": "address",
          "name": "newImplementation",
          "type": "address"
        },
        {
          "internalType": "bytes",
          "name": "data",
          "type": "bytes"
        }
      ],
      "name": "upgradeToAndCall",
      "outputs": [],
      "stateMutability": "payable",
      "type": "function"
    },
    {
      "stateMutability": "payable",
      "type": "receive"
    }
  ],
  "bytecode": "0x60a080604052346100ea57306080527ff0c57e16840df040f15088dc2f81fe391c3923bec73e23a9662efc9c229c6a005460ff8160401c166100d9576002600160401b03196001600160401b03821601610073575b604051610eca90816100f082396080518181816105aa015261067e0152f35b6001600160401b0319166001600160401b039081177ff0c57e16840df040f15088dc2f81fe391c3923bec73e23a9662efc9c229c6a005581527fc7f505b2f371ae2175ee4913f4499e1f2633a7b5936321eed1cdaeb6115181d290602090a13880610054565b63f92ee8a960e01b60005260046000fd5b600080fdfe6080604052600436101561001b575b361561001957600080fd5b005b60003560e01c80631f7e75c81461086b5780634626402b146108425780634f1ef2861461060157806352d1902d14610597578063704b6c02146104c4578063715018a61461045a578063809d458d1461037f5780638129fc1c146101e15780638da5cb5b146101ab578063ad3cb1cc1461012f578063ad5c464814610106578063f2fde38b146100dd5763fa2af9da0361000e57346100d85760003660031901126100d8576001546040516001600160a01b039091168152602090f35b600080fd5b346100d85760203660031901126100d8576100196100f9610bd2565b610101610ca4565b610c2e565b346100d85760003660031901126100d8576000546040516001600160a01b039091168152602090f35b346100d85760003660031901126100d857604080519061014f8183610b98565b60058252640352e302e360dc1b6020830152805180926020825280519081602084015260005b8281106101945750506000828201840152601f01601f19168101030190f35b602082820181015187830187015286945001610175565b346100d85760003660031901126100d857600080516020610e3e833981519152546040516001600160a01b039091168152602090f35b346100d85760003660031901126100d857600080516020610e9e8339815191525460ff8160401c16159067ffffffffffffffff811680159081610377575b600114908161036d575b159081610364575b506103535767ffffffffffffffff198116600117600080516020610e9e8339815191525581610326575b50610264610cda565b61026c610cda565b61027533610c2e565b61027d610cda565b610285610cda565b61028d610cda565b6001600080516020610e7e83398151915255336001600160601b0360a01b6002541617600255336001600160601b0360a01b60015416176001556102cd57005b68ff000000000000000019600080516020610e9e8339815191525416600080516020610e9e833981519152557fc7f505b2f371ae2175ee4913f4499e1f2633a7b5936321eed1cdaeb6115181d2602060405160018152a1005b68ffffffffffffffffff19166801000000000000000117600080516020610e9e833981519152558161025b565b63f92ee8a960e01b60005260046000fd5b90501583610231565b303b159150610229565b83915061021f565b346100d85760203660031901126100d857610398610bd2565b6103a0610ca4565b6001600160a01b03168015610415576080817f1e56b377b522438e71796d1885290a090be46e7ebba978e21e1b68da06d29598926001600160601b0360a01b60025416176002556040519060408252600e60408301526d1d1c99585cdd5c9e55d85b1b195d60921b60608301526020820152a1005b60405162461bcd60e51b815260206004820152601860248201527f496e76616c6964207472656173757279206164647265737300000000000000006044820152606490fd5b346100d85760003660031901126100d857610473610ca4565b600080516020610e3e83398151915280546001600160a01b031981169091556000906001600160a01b03167f8be0079c531659141344cd1fd0a4f28419497f9722a3daafe3b4186f6b6457e08280a3005b346100d85760203660031901126100d8576104dd610bd2565b6104e5610ca4565b6001600160a01b0316801561055a576080817f247fc6b6060a248bd48c4b239fbf251adc2b73a9695b3b181598f02aa931e877926001600160601b0360a01b60015416176001556040519060408252600e60408301526d1c1b185d199bdc9b55d85b1b195d60921b60608301526020820152a1005b60405162461bcd60e51b8152602060048201526015602482015274496e76616c69642061646d696e206164647265737360581b6044820152606490fd5b346100d85760003660031901126100d8577f00000000000000000000000000000000000000000000000000000000000000006001600160a01b031630036105f0576020604051600080516020610e5e8339815191528152f35b63703e46dd60e11b60005260046000fd5b60403660031901126100d857610615610bd2565b6024359067ffffffffffffffff82116100d857366023830112156100d85781600401359061064282610be8565b916106506040519384610b98565b808352602083019336602483830101116100d857816000926024602093018737840101526001600160a01b037f00000000000000000000000000000000000000000000000000000000000000001630811490811561081f575b506105f0576106b6610ca4565b6040516352d1902d60e01b81526001600160a01b0382169390602081600481885afa600091816107eb575b506106fb5784634c9c8ce360e01b60005260045260246000fd5b80600080516020610e5e8339815191528692036107d75750823b156107c357600080516020610e5e83398151915280546001600160a01b031916821790557fbc7cd75a20ee27fd9adebab32041f755214dbc6bffa90cc0225b39da2e5c2d3b600080a28251156107a85760008091610019945190845af43d156107a0573d9161078383610be8565b926107916040519485610b98565b83523d6000602085013e610d08565b606091610d08565b505050346107b257005b63b398979f60e01b60005260046000fd5b634c9c8ce360e01b60005260045260246000fd5b632a87526960e21b60005260045260246000fd5b9091506020813d602011610817575b8161080760209383610b98565b810103126100d8575190866106e1565b3d91506107fa565b600080516020610e5e833981519152546001600160a01b031614159050846106a9565b346100d85760003660031901126100d8576002546040516001600160a01b039091168152602090f35b60403660031901126100d85760043567ffffffffffffffff81116100d857366023820112156100d8578060040135906108a382610bba565b916108b16040519384610b98565b8083526024602084019160051b830101913683116100d857602401905b828210610b88578360243567ffffffffffffffff81116100d857366023820112156100d857806004013561090181610bba565b9161090f6040519384610b98565b8183526024602084019260051b820101903682116100d857602401915b818310610b68575050506002600080516020610e7e8339815191525414610b57576002600080516020610e7e833981519152558151815103610b2057815115610af157600091825b81518410156109b2576109878483610c04565b51810180911161099c57600190930192610974565b634e487b7160e01b600052601160045260246000fd5b3410610aac57610d6a9060d460005b8251811015610a98576109d48184610c04565b516001600160a01b036109e78388610c04565b5116604051908482019082821067ffffffffffffffff831117610a82576020918391878a84398152030191f0908115610a76576001916001600160a01b03610a2f8389610c04565b5116907fad92a691bda70ce78bd3e14e780181bdf98abb197ed2b962ed1137f574840cb36020610a5f8589610c04565b5192604051938452868060a01b031692a3016109c1565b6040513d6000823e3d90fd5b634e487b7160e01b600052604160045260246000fd5b6001600080516020610e7e83398151915255005b60405162461bcd60e51b815260206004820152601960248201527f6d73672e76616c7565203c20746f74616c20616d6f756e7473000000000000006044820152606490fd5b60405162461bcd60e51b81526020600482015260076024820152664e6f206461746160c81b6044820152606490fd5b60405162461bcd60e51b815260206004820152600f60248201526e098cadccee8d040dad2e6dac2e8c6d608b1b6044820152606490fd5b633ee5aeb560e01b60005260046000fd5b82356001600160a01b03811681036100d85781526020928301920161092c565b81358152602091820191016108ce565b90601f8019910116810190811067ffffffffffffffff821117610a8257604052565b67ffffffffffffffff8111610a825760051b60200190565b600435906001600160a01b03821682036100d857565b67ffffffffffffffff8111610a8257601f01601f191660200190565b8051821015610c185760209160051b010190565b634e487b7160e01b600052603260045260246000fd5b6001600160a01b03168015610c8e57600080516020610e3e83398151915280546001600160a01b0319811683179091556001600160a01b03167f8be0079c531659141344cd1fd0a4f28419497f9722a3daafe3b4186f6b6457e0600080a3565b631e4fbdf760e01b600052600060045260246000fd5b600080516020610e3e833981519152546001600160a01b03163303610cc557565b63118cdaa760e01b6000523360045260246000fd5b60ff600080516020610e9e8339815191525460401c1615610cf757565b631afcd79f60e31b60005260046000fd5b90610d2e5750805115610d1d57602081519101fd5b63d6bda27560e01b60005260046000fd5b81511580610d60575b610d3f575090565b639996b31560e01b60009081526001600160a01b0391909116600452602490fd5b50803b15610d3756fe6080601f60d438819003918201601f19168301916001600160401b0383118484101760bd5780849260209460405283398101031260b857516001600160a01b03811680820360b857156082573415605257ff5b60405162461bcd60e51b81526020600482015260086024820152676e6f2076616c756560c01b6044820152606490fd5b60405162461bcd60e51b815260206004820152600e60248201526d1e995c9bc81c9958da5c1a595b9d60921b6044820152606490fd5b600080fd5b634e487b7160e01b600052604160045260246000fdfe9016d09d72d40fdae2fd8ceac6b6234c7706214fd39c1cd1e609a0528c199300360894a13ba1a3210667c828492db98dca3e2076cc3735a920a3ca505d382bbc9b779b17422d0df92223018b32b4d1fa46e071723d6817e2486d003becc55f00f0c57e16840df040f15088dc2f81fe391c3923bec73e23a9662efc9c229c6a00a164736f6c634300081c000a",
  "linkReferences": {},
  "deployedLinkReferences": {}
}